:100000000C943A000C9457000C9457000C94570031
:100010000C9457000C9457000C9457000C94570004
:100020000C9457000C9457000C9457000C945700F4
:100030000C9457000C9457000C9457000C945700E4
:100040000C9457000C9457000C9457000C945700D4
:100050000C94570066026A026E02720276027A02FD
:100060007E028202930299029F02A502AB02B102B4
:10007000B702BD0211241FBECFE5D8E0DEBFCDBF61
:1000800010E0A0E6B0E0E6E6F7E002C005900D92D1
:10009000AE3BB107D9F720E0AEEBB0E001C01D9256
:1000A000A23DB207E1F70E9459000C94B1030C94F1
:1000B00000000E94B5010E944B020E9471002FEFC8
:1000C00089E698E1215080409040E1F700C00000AF
:1000D0000E944B020E94E000009789F30E943602C2
:1000E000EECF61E087E00E944F02089580E00E9419
:1000F0008A0241E050E060E070E0883C924018F4F1
:1001000040E050E0BA014093BE005093BF006093BE
:10011000C0007093C10084E00E948A0241E050E078
:1001200060E070E08332934018F440E050E0BA01A0
:100130004093C2005093C3006093C4007093C50005
:1001400085E00E948A0241E050E060E070E0843384
:10015000934018F440E050E0BA014093C600509339
:10016000C7006093C8007093C90086E00E948A02AD
:1001700041E050E060E070E08532934018F440E0E8
:1001800050E0BA014093CA005093CB006093CC007A
:100190007093CD0087E00E948A0241E050E060E069
:1001A00070E08037934018F440E050E0BA0140938B
:1001B000CE005093CF006093D0007093D10008958B
:1001C000CF92DF92EF92FF920E947600EEEBF0E08A
:1001D00022ED30E080E090E0DC01419151916191AD
:1001E0007191880F991FAA1FBB1F6C017D01CC0C58
:1001F000DD1CEE1CFF1CCC0CDD1CEE1CFF1C8C0D52
:100200009D1DAE1DBF1D0196A11DB11D840F951F23
:10021000A61FB71FE217F30701F787362BE29207F5
:10022000A105B105C1F181372BE29207A105B10506
:10023000A9F1853D2BE29207A105B10591F18D3B16
:100240002FE29207A105B10579F18E3B2FE29207CB
:10025000A105B10561F1823822E59207A105B1053A
:1002600049F1853E22E59207A105B10531F1863EAF
:1002700022E59207A105B10519F18F3526E5920710
:10028000A105B10501F18E3C9645A105B105F1F03E
:1002900087EB90E01DC080E690E01AC085E690E014
:1002A00017C085E790E014C08EE790E011C086E8A3
:1002B00090E00EC08FE890E00BC08EE990E008C09F
:1002C0008BEA90E005C08FEA90E002C082EB90E0FC
:1002D000FF90EF90DF90CF900895CF93C82F40E02C
:1002E00061E081E00E943A0340E062E081E00E9428
:1002F0003A0340E063E081E00E943A0382B39C2F1E
:10030000907F8F70892B82BB41E063E081E00E9487
:100310003A038FE99FE00197F1F700C0000040E049
:1003200063E081E00E943A0322B330E1C39FC00141
:100330001124922F9F70892B82BB41E063E081E002
:100340000E943A038FE99FE00197F1F700C0000097
:1003500040E063E081E00E943A038FE39FE1019770
:10036000F1F700C00000CF91089541E063E081E023
:100370000E94C90241E061E081E00E94C90241E0BF
:1003800062E081E00E94C90241E064E083E00E94F3
:10039000C90241E065E083E00E94C90241E066E0F5
:1003A00083E00E94C90241E067E083E00E94C90245
:1003B00083E30E946D0182E30E946D0188E20E9446
:1003C0006D0181E00E946D0182E00E946D0186E076
:1003D0000E946D018CE00E946D010895CF93C82F9B
:1003E00041E061E081E00E943A0340E062E081E0A8
:1003F0000E943A0340E063E081E00E943A0382B346
:100400009C2F907F8F70892B82BB41E063E081E05D
:100410000E943A038FE99FE00197F1F700C00000C6
:1004200040E063E081E00E943A0322B330E1C39FE1
:10043000C0011124922F9F70892B82BB41E063E0A1
:1004400081E00E943A038FE99FE00197F1F700C035
:10045000000040E063E081E00E943A038FE39FE107
:100460000197F1F700C00000CF910895CF93DF937B
:10047000EC018881882361F021960E94EE018FE3D0
:100480009FE10197F1F700C0000089918111F5CF3C
:10049000DF91CF91089581E00E946D010895613050
:1004A00039F018F0623039F008C03F983E9805C026
:1004B0003F983E9A02C03F9A3E9A90E0883091055C
:1004C00020F5FC01E65DFF4F0C94AB0332983198A8
:1004D00030981BC032983198309A17C03298319AB0
:1004E000309813C03298319A309A0FC0329A3198AE
:1004F00030980BC0329A3198309A07C0329A319AAC
:10050000309803C0329A319A309A3D98379A35988C
:100510003398089590E088309105A0F5FC01EE5CD9
:10052000FF4F0C94AB033C983B983A983998389815
:1005300029C03C983B983A983998389A23C03C98FF
:100540003B983A98399A38981DC03C983B983A980D
:10055000399A389A17C03C983B983A9A3998389803
:1005600011C03C983B983A9A3998389A0BC03C98FD
:100570003B983A9A399A389805C03C983B983A9AF1
:10058000399A389A369A349BFECF349A84B195B111
:100590000895442319F04130C9F10895813091F054
:1005A00028F08230D9F0833029F108952AB381E010
:1005B00090E002C0880F991F6A95E2F78095822328
:1005C0008ABB089527B381E090E002C0880F991F8D
:1005D0006A95E2F78095822387BB089524B381E072
:1005E00090E002C0880F991F6A95E2F780958223F8
:1005F00084BB089521B381E090E002C0880F991F69
:100600006A95E2F78095822381BB0895813089F055
:1006100028F08230C9F0833011F108952AB381E0C7
:1006200090E002C0880F991F6A95E2F7822B8ABB7F
:10063000089527B381E090E002C0880F991F6A9562
:10064000E2F7822B87BB089524B381E090E002C0DB
:10065000880F991F6A95E2F7822B84BB089521B316
:1006600081E090E002C0880F991F6A95E2F7822B23
:1006700081BB0895442319F04130C9F108958130B8
:1006800091F028F08230D9F0833029F108952BB30E
:1006900081E090E002C0880F991F6A95E2F780958B
:1006A00082238BBB089528B381E090E002C0880FBD
:1006B000991F6A95E2F78095822388BB089525B338
:1006C00081E090E002C0880F991F6A95E2F780955B
:1006D000822385BB089522B381E090E002C0880F99
:1006E000991F6A95E2F78095822382BB0895813035
:1006F00089F028F08230C9F0833011F108952BB3CE
:1007000081E090E002C0880F991F6A95E2F7822B82
:100710008BBB089528B381E090E002C0880F991F39
:100720006A95E2F7822B88BB089525B381E090E0BB
:1007300002C0880F991F6A95E2F7822B85BB089546
:1007400022B381E090E002C0880F991F6A95E2F71A
:10075000822B82BB0895EE0FFF1F0590F491E02DD0
:060760000994F894FFCF9C
:1007660053746F700049205265616C6C79204C6F30
:10077600766520550049204C6F766520550043610B
:100786006C6C204D6500476F6F64204A6F620049AC
:10079600276D205761746368696E67205500546839
:1007A6006174277320477265617400596F75004F35
:0E07B6004B00486F6C64002E2E2E2E2E00007D
:00000001FF
